:101800006EC0AEC093C092C091C090C08FC08EC059
:101810008DC08CC08BC08AC089C088C087C086C07C
:1018200085C084C083C0EC2DFD2DB7B6B0FCFDCFC4
:1018300027BFE895B7B6B0FCFDCF21E1B7B6B6FC3F
:10184000F4CF089509021200010100806409040028
:1018500000000000000012011001FF000008C01687
:10186000DC05020101020001300341005600520074
:101870002D005A00490046002D00500052004F0034
:101880004700200042004F004F0054004C004F0022
:10189000410044004500520042034A0042007400E7
:1018A00072006F006E0069006300730020006A0020
:1018B0006200740072006F006E00690063007300C4
:1018C00077006F00720064007000720065007300A2
:1018D00073002E0063006F006D00040309041124DF
:1018E0001FBECFE5D4E0DEBFCDBF24B7D4E0CEE548
:1018F00039913C30399109F03FEF30939A002093B1
:10190000990010E0A0E6B0E0EEEEFFE102C0059025
:101910000D92A636B107D9F720E0A6E6B0E001C0E7
:101920001D92A939B207E1F798D15FC369CFA82FFB
:10193000B92F80E090E041E050EA609530E009C0C6
:101940002D9182279795879510F084279527305EF3
:10195000C8F36F5FA8F30895EADF8D939D93089510
:10196000CF93CFB7CF93C395B09BE9F7B09B09C096
:10197000B09B07C0B09B05C0B09B03C0B09B01C02B
:10198000A1C0DF93C0917C00DD27CD57DF4FB09B16
:1019900002C0DF91EBCF2F930F931F9306B32FEF6E
:1019A00000FB20F94F933F9316B34FEF012700FB45
:1019B00021F93BE031C04E7F012F16B3216028C0D2
:1019C000102F4D7F2260000006B329C04B7F24609A
:1019D000012F000016B32BC016B3477F28602AC022
:1019E0004F7E06B320612CC04F7D16B320622FC0FE
:1019F0004F7B06B3206432C0422706B349934FEFB2
:101A00000000102710FB20F916B31370C9F1297FCD
:101A100091F2012700FB21F906B3237F89F23150AF
:101A200058F1102710FB22F916B3277E79F201270F
:101A300000FB23F92F7C81F206B3102710FB24F959
:101A40002F7971F200C016B3012700FB25F92F731F
:101A500059F200C006B3102710FB26F9223040F2DD
:101A600000C016B3012700FB27F9243028F64F7772
:101A7000206816B30000F9CF10E41ABF002717C082
:101A80003B503195C31BD04010E41ABF0881033C82
:101A9000E9F00B34D9F020917A001981110F12135B
:101AA000EDCF093641F10D3211F0013E39F70093C7
:101AB00081003F914F911F910F912F91DF91CAB7F4
:101AC000C6FD51CFCF91CFBFCF9118952091810006
:101AD000222379F310917F00112311F5343012F194
:101AE00030937F0020937B0010917C003BE0311B02
:101AF00030937C0017C000917F0001308CF40AE520
:101B00003091610034FD10C000936100CFE6D0E059
:101B10000FC02795A8F45150A9F4220F0000F9CF67
:101B20004AE503C042ED01C0432FC4E1D0E032E0FA
:101B300017B31360C09A17BB08B320E413E05F9398
:101B4000012756E008BB279520F4515021F4220FBD
:101B5000F9CF012756E000003B5A08BBD0F2279589
:101B600028F4515029F4220F0000F9CF012756E044
:101B7000279508BB20F4515021F4220FF9CF0127FB
:101B800056E02991332308BB21F60C7F1091800089
:101B9000110FC651D04008BB11F010937A0010E429
:101BA0001ABF016017B31C7F402F4C7F5F9100C0AC
:101BB00000C008BB17BB48BB7CCFF894B89AAA9862
:101BC0001BBE15BEF1E0FBBF1BBE1AC2DC011396A3
:101BD0003C911397932F1496EC9114978E2F129695
:101BE0002C911297203331F4E370F0E0EE59FF4F5F
:101BF00080810895283529F431110EC0E1E0F0E02C
:101C000006C0203571F4311126C0E0E0F0E089E033
:101C100080935700849108953830E9F4E3E0F0E0D0
:101C2000F6CF203221F4FC01EE0FFF1F06C0283250
:101C300031F4880F991FFC01319684910895203A60
:101C400009F4BEC1203C21F415966C91C1D103C0AA
:101C50002F3F09F411EF80E0089514BA84E085BBAA
:101C600081E08BBF82E08BBF83E031978040E9F752
:101C700080919900877F21F480919A00882311F048
:101C80009A999BDF1EEF14BE85B7826085BF8BB724
:101C900080648BBFB89A8CE031978040E9F7B898A0
:101CA000789480917F00835087FD0BC190917C00D8
:101CB000CCE0D0E0C91BD109CD57DF4F90917B001C
:101CC0009D3209F0B2C0883009F0F9C083EC8093EE
:101CD0006F008AE58093610010926E002881922F38
:101CE00090768981992391F146E650E050937E00E9
:101CF00040937D00833031F4CE0168DF809369002A
:101D000094E089C0853009F485C08A3009F482C026
:101D10009CEF980F9630A0F44A815B8150936D0040
:101D200040936C00893009F449C19E8190936B0007
:101D30008D81827080936A0027FD68C09FEF66C026
:101D4000823011F41E7F3AC1116038C19A8110921D
:101D50007800811106C01092790028E730E092E007
:101D600050C0853019F4909380003DC08630A9F5AD
:101D70008B81813019F486E598E104C0823041F40A
:101D800084E498E190937E0080937D0092E121C0ED
:101D90008330F1F4911108C08AED98E190937E00B0
:101DA00080937D0094E015C0913041F488E998E17A
:101DB00090937E0080937D0092E40BC0923041F4BA
:101DC00088E698E190937E0080937D0090E301C0C7
:101DD00090E080E480936E001EC0883079F08930F6
:101DE00031F49093820028E730E090E00AC091E05F
:101DF0008A3009F090E028E730E003C022E830E0C4
:101E000091E030937E0020937D0005C080E88093B0
:101E10006E0008C091E08F81811104C08E81891706
:101E200008F4982F909360004AC090916E0097FF3D
:101E300046C090916B00981708F4892F981B9093D7
:101E40006B0031E0911130E090916A00E0916C00FC
:101E5000F0916D00DE0180FD8395825048F1F831EC
:101E600038F522D0F8940D901D9021E017D02E2F38
:101E70002E5F2F7331F0332379F0992369F080308E
:101E800059F423E00BD010D025E008D00DD007B6D0
:101E900006FE02C021E102D03296DFCFF89427BFC0
:101EA000E89511247894089507B600FCFDCF0895B5
:101EB000F0936D00E0936C0031111092600010926D
:101EC0007F008091610084FF63C0809160008F3F3C
:101ED00009F45EC0C82F893008F0C8E08C1B8093DD
:101EE000600090916F0088E8892780936F00CC2371
:101EF00009F442C080916E0087FF1BC080916B0087
:101F00008C1708F4C82F8C1B80936B00E0916C0039
:101F1000F0916D00A0E7B0E09F012F5F3F4F80E799
:101F200090E04A2F481B4C1718F5E491ED93F90106
:101F3000F3CF20917D0040917E003C2F320FA0E72F
:101F4000B0E086FF08C0E22FF42F84918D93319684
:101F50003E13FBCF08C0822F942FFC0181918D93FB
:101F6000CF013E13FACFF0937E00E0937D0004C0D2
:101F7000F0936D00E0936C006C2F80E790E0ECDC58
:101F8000CC5FCC3019F08FEF80936000C09361007C
:101F900084E196B3937031F48150D9F710928000A8
:101FA00010927A00103118F09A99105104C0123032
:101FB00010F09A9B1250111174CE63CE90E02BCF8B
:101FC000E199FECF9FBB8EBBE09A99278DB3089510
:101FD000262FE199FECF9FBB8EBB2DBB0FB6F89489
:0E1FE000E29AE19A0FBE01960895F894FFCFA1
:061FEE00FF5A1E930700DC
:0400000300001800E1
:00000001FF
